{
  "_format": "hh3-artifact-1",
  "contractName": "Election",
  "sourceName": "contracts/Election.sol",
  "abi": [
    {
      "inputs": [],
      "stateMutability": "nonpayable",
      "type": "constructor"
    },
    {
      "anonymous": false,
      "inputs": [
        {
          "indexed": true,
          "internalType": "string",
          "name": "id",
          "type": "string"
        },
        {
          "indexed": false,
          "internalType": "string",
          "name": "name",
          "type": "string"
        }
      ],
      "name": "CandidateAdded",
      "type": "event"
    },
    {
      "anonymous": false,
      "inputs": [
        {
          "indexed": true,
          "internalType": "string",
          "name": "voterHash",
          "type": "string"
        },
        {
          "indexed": true,
          "internalType": "string",
          "name": "candidateId",
          "type": "string"
        }
      ],
      "name": "VoteCast",
      "type": "event"
    },
    {
      "inputs": [
        {
          "internalType": "string",
          "name": "_id",
          "type": "string"
        },
        {
          "internalType": "string",
          "name": "_name",
          "type": "string"
        },
        {
          "internalType": "string",
          "name": "_party",
          "type": "string"
        },
        {
          "internalType": "string",
          "name": "_description",
          "type": "string"
        },
        {
          "internalType": "string",
          "name": "_avatarUrl",
          "type": "string"
        }
      ],
      "name": "addCandidate",
      "outputs": [],
      "stateMutability": "nonpayable",
      "type": "function"
    },
    {
      "inputs": [
        {
          "internalType": "uint256",
          "name": "",
          "type": "uint256"
        }
      ],
      "name": "candidateIds",
      "outputs": [
        {
          "internalType": "string",
          "name": "",
          "type": "string"
        }
      ],
      "stateMutability": "view",
      "type": "function"
    },
    {
      "inputs": [
        {
          "internalType": "string",
          "name": "",
          "type": "string"
        }
      ],
      "name": "candidates",
      "outputs": [
        {
          "internalType": "string",
          "name": "id",
          "type": "string"
        },
        {
          "internalType": "string",
          "name": "name",
          "type": "string"
        },
        {
          "internalType": "string",
          "name": "party",
          "type": "string"
        },
        {
          "internalType": "string",
          "name": "description",
          "type": "string"
        },
        {
          "internalType": "string",
          "name": "avatarUrl",
          "type": "string"
        },
        {
          "internalType": "uint256",
          "name": "voteCount",
          "type": "uint256"
        }
      ],
      "stateMutability": "view",
      "type": "function"
    },
    {
      "inputs": [
        {
          "internalType": "string",
          "name": "_voterHash",
          "type": "string"
        },
        {
          "internalType": "string",
          "name": "_candidateId",
          "type": "string"
        },
        {
          "internalType": "string",
          "name": "_zkProof",
          "type": "string"
        }
      ],
      "name": "castVote",
      "outputs": [],
      "stateMutability": "nonpayable",
      "type": "function"
    },
    {
      "inputs": [],
      "name": "getAllCandidateIds",
      "outputs": [
        {
          "internalType": "string[]",
          "name": "",
          "type": "string[]"
        }
      ],
      "stateMutability": "view",
      "type": "function"
    },
    {
      "inputs": [
        {
          "internalType": "string",
          "name": "_id",
          "type": "string"
        }
      ],
      "name": "getCandidate",
      "outputs": [
        {
          "internalType": "string",
          "name": "id",
          "type": "string"
        },
        {
          "internalType": "string",
          "name": "name",
          "type": "string"
        },
        {
          "internalType": "string",
          "name": "party",
          "type": "string"
        },
        {
          "internalType": "string",
          "name": "description",
          "type": "string"
        },
        {
          "internalType": "string",
          "name": "avatarUrl",
          "type": "string"
        },
        {
          "internalType": "uint256",
          "name": "voteCount",
          "type": "uint256"
        }
      ],
      "stateMutability": "view",
      "type": "function"
    },
    {
      "inputs": [],
      "name": "getCandidateCount",
      "outputs": [
        {
          "internalType": "uint256",
          "name": "",
          "type": "uint256"
        }
      ],
      "stateMutability": "view",
      "type": "function"
    },
    {
      "inputs": [
        {
          "internalType": "string",
          "name": "",
          "type": "string"
        }
      ],
      "name": "hasVoted",
      "outputs": [
        {
          "internalType": "bool",
          "name": "",
          "type": "bool"
        }
      ],
      "stateMutability": "view",
      "type": "function"
    },
    {
      "inputs": [],
      "name": "owner",
      "outputs": [
        {
          "internalType": "address",
          "name": "",
          "type": "address"
        }
      ],
      "stateMutability": "view",
      "type": "function"
    },
    {
      "inputs": [
        {
          "internalType": "string",
          "name": "_id",
          "type": "string"
        }
      ],
      "name": "removeCandidate",
      "outputs": [],
      "stateMutability": "nonpayable",
      "type": "function"
    }
  ],
  "bytecode": "0x6080604052348015600e575f5ffd5b50335f5f6101000a81548173ffffffffffffffffffffffffffffffffffffffff021916908373ffffffffffffffffffffffffffffffffffffffff160217905550611b2d8061005b5f395ff3fe608060405234801561000f575f5ffd5b506004361061009c575f3560e01c80638da5cb5b116100645780638da5cb5b14610158578063945ddfb914610176578063c5539cc214610192578063cf95a070146101c7578063f276669d146101e35761009c565b806301c9605b146100a057806303016130146100bc57806330a56347146100ec57806339bfeae31461010a5780633e26a9b51461013a575b5f5ffd5b6100ba60048036038101906100b591906110b7565b610218565b005b6100d660048036038101906100d19190611131565b61031b565b6040516100e391906111bc565b60405180910390f35b6100f46103c1565b60405161010191906111eb565b60405180910390f35b610124600480360381019061011f91906110b7565b6103cd565b604051610131919061121e565b60405180910390f35b610142610402565b60405161014f919061133a565b60405180910390f35b6101606104d6565b60405161016d9190611399565b60405180910390f35b610190600480360381019061018b91906113b2565b6104fa565b005b6101ac60048036038101906101a791906110b7565b610740565b6040516101be969594939291906114b5565b60405180910390f35b6101e160048036038101906101dc9190611537565b610a2e565b005b6101fd60048036038101906101f891906110b7565b610bd1565b60405161020f969594939291906114b5565b60405180910390f35b5f5f9054906101000a900473ffffffffffffffffffffffffffffffffffffffff1673ffffffffffffffffffffffffffffffffffffffff163373ffffffffffffffffffffffffffffffffffffffff16146102a6576040517f08c379a000000000000000000000000000000000000000000000000000000000815260040161029d90611625565b60405180910390fd5b6001816040516102b6919061167d565b90815260200160405180910390205f5f82015f6102d39190610f12565b600182015f6102e29190610f12565b600282015f6102f19190610f12565b600382015f6103009190610f12565b600482015f61030f9190610f12565b600582015f9055505050565b6002818154811061032a575f80fd5b905f5260205f20015f915090508054610342906116c0565b80601f016020809104026020016040519081016040528092919081815260200182805461036e906116c0565b80156103b95780601f10610390576101008083540402835291602001916103b9565b820191905f5260205f20905b81548152906001019060200180831161039c57829003601f168201915b505050505081565b5f600280549050905090565b6003818051602081018201805184825260208301602085012081835280955050505050505f915054906101000a900460ff1681565b60606002805480602002602001604051908101604052809291908181526020015f905b828210156104cd578382905f5260205f20018054610442906116c0565b80601f016020809104026020016040519081016040528092919081815260200182805461046e906116c0565b80156104b95780601f10610490576101008083540402835291602001916104b9565b820191905f5260205f20905b81548152906001019060200180831161049c57829003601f168201915b505050505081526020019060010190610425565b50505050905090565b5f5f9054906101000a900473ffffffffffffffffffffffffffffffffffffffff1681565b5f5f9054906101000a900473ffffffffffffffffffffffffffffffffffffffff1673ffffffffffffffffffffffffffffffffffffffff163373ffffffffffffffffffffffffffffffffffffffff1614610588576040517f08c379a000000000000000000000000000000000000000000000000000000000815260040161057f90611625565b60405180910390fd5b5f600186604051610599919061167d565b90815260200160405180910390205f0180546105b4906116c0565b9050146105f6576040517f08c379a00000000000000000000000000000000000000000000000000000000081526004016105ed9061173a565b60405180910390fd5b6040518060c001604052808681526020018581526020018481526020018381526020018281526020015f815250600186604051610633919061167d565b90815260200160405180910390205f820151815f01908161065491906118f8565b50602082015181600101908161066a91906118f8565b50604082015181600201908161068091906118f8565b50606082015181600301908161069691906118f8565b5060808201518160040190816106ac91906118f8565b5060a08201518160050155905050600285908060018154018082558091505060019003905f5260205f20015f9091909190915090816106eb91906118f8565b50846040516106fa919061167d565b60405180910390207f6184463fde61a3e60869da6c5a223163f4b7548f805e17f865da2e8d3828d3378560405161073191906111bc565b60405180910390a25050505050565b6001818051602081018201805184825260208301602085012081835280955050505050505f91509050805f018054610777906116c0565b80601f01602080910402602001604051908101604052809291908181526020018280546107a3906116c0565b80156107ee5780601f106107c5576101008083540402835291602001916107ee565b820191905f5260205f20905b8154815290600101906020018083116107d157829003601f168201915b505050505090806001018054610803906116c0565b80601f016020809104026020016040519081016040528092919081815260200182805461082f906116c0565b801561087a5780601f106108515761010080835404028352916020019161087a565b820191905f5260205f20905b81548152906001019060200180831161085d57829003601f168201915b50505050509080600201805461088f906116c0565b80601f01602080910402602001604051908101604052809291908181526020018280546108bb906116c0565b80156109065780601f106108dd57610100808354040283529160200191610906565b820191905f5260205f20905b8154815290600101906020018083116108e957829003601f168201915b50505050509080600301805461091b906116c0565b80601f0160208091040260200160405190810160405280929190818152602001828054610947906116c0565b80156109925780601f1061096957610100808354040283529160200191610992565b820191905f5260205f20905b81548152906001019060200180831161097557829003601f168201915b5050505050908060040180546109a7906116c0565b80601f01602080910402602001604051908101604052809291908181526020018280546109d3906116c0565b8015610a1e5780601f106109f557610100808354040283529160200191610a1e565b820191905f5260205f20905b815481529060010190602001808311610a0157829003601f168201915b5050505050908060050154905086565b600383604051610a3e919061167d565b90815260200160405180910390205f9054906101000a900460ff1615610a99576040517f08c379a0000000000000000000000000000000000000000000000000000000008152600401610a9090611a11565b60405180910390fd5b5f600183604051610aaa919061167d565b90815260200160405180910390205f018054610ac5906116c0565b905003610b07576040517f08c379a0000000000000000000000000000000000000000000000000000000008152600401610afe90611a79565b60405180910390fd5b60018083604051610b18919061167d565b90815260200160405180910390206005015f828254610b379190611ac4565b925050819055506001600384604051610b50919061167d565b90815260200160405180910390205f6101000a81548160ff02191690831515021790555081604051610b82919061167d565b604051809103902083604051610b98919061167d565b60405180910390207f137ad23732468494166ec34d1367743690ffa17f6ceac8429cba8fc35d088b6e60405160405180910390a3505050565b60608060608060605f5f600188604051610beb919061167d565b90815260200160405180910390206040518060c00160405290815f82018054610c13906116c0565b80601f0160208091040260200160405190810160405280929190818152602001828054610c3f906116c0565b8015610c8a5780601f10610c6157610100808354040283529160200191610c8a565b820191905f5260205f20905b815481529060010190602001808311610c6d57829003601f168201915b50505050508152602001600182018054610ca3906116c0565b80601f0160208091040260200160405190810160405280929190818152602001828054610ccf906116c0565b8015610d1a5780601f10610cf157610100808354040283529160200191610d1a565b820191905f5260205f20905b815481529060010190602001808311610cfd57829003601f168201915b50505050508152602001600282018054610d33906116c0565b80601f0160208091040260200160405190810160405280929190818152602001828054610d5f906116c0565b8015610daa5780601f10610d8157610100808354040283529160200191610daa565b820191905f5260205f20905b815481529060010190602001808311610d8d57829003601f168201915b50505050508152602001600382018054610dc3906116c0565b80601f0160208091040260200160405190810160405280929190818152602001828054610def906116c0565b8015610e3a5780601f10610e1157610100808354040283529160200191610e3a565b820191905f5260205f20905b815481529060010190602001808311610e1d57829003601f168201915b50505050508152602001600482018054610e53906116c0565b80601f0160208091040260200160405190810160405280929190818152602001828054610e7f906116c0565b8015610eca5780601f10610ea157610100808354040283529160200191610eca565b820191905f5260205f20905b815481529060010190602001808311610ead57829003601f168201915b505050505081526020016005820154815250509050805f015181602001518260400151836060015184608001518560a001519650965096509650965096505091939550919395565b508054610f1e906116c0565b5f825580601f10610f2f5750610f4c565b601f0160209004905f5260205f2090810190610f4b9190610f4f565b5b50565b5b80821115610f66575f815f905550600101610f50565b5090565b5f604051905090565b5f5ffd5b5f5ffd5b5f5ffd5b5f5ffd5b5f601f19601f8301169050919050565b7f4e487b71000000000000000000000000000000000000000000000000000000005f52604160045260245ffd5b610fc982610f83565b810181811067ffffffffffffffff82111715610fe857610fe7610f93565b5b80604052505050565b5f610ffa610f6a565b90506110068282610fc0565b919050565b5f67ffffffffffffffff82111561102557611024610f93565b5b61102e82610f83565b9050602081019050919050565b828183375f83830152505050565b5f61105b6110568461100b565b610ff1565b90508281526020810184848401111561107757611076610f7f565b5b61108284828561103b565b509392505050565b5f82601f83011261109e5761109d610f7b565b5b81356110ae848260208601611049565b91505092915050565b5f602082840312156110cc576110cb610f73565b5b5f82013567ffffffffffffffff8111156110e9576110e8610f77565b5b6110f58482850161108a565b91505092915050565b5f819050919050565b611110816110fe565b811461111a575f5ffd5b50565b5f8135905061112b81611107565b92915050565b5f6020828403121561114657611145610f73565b5b5f6111538482850161111d565b91505092915050565b5f81519050919050565b5f82825260208201905092915050565b8281835e5f83830152505050565b5f61118e8261115c565b6111988185611166565b93506111a8818560208601611176565b6111b181610f83565b840191505092915050565b5f6020820190508181035f8301526111d48184611184565b905092915050565b6111e5816110fe565b82525050565b5f6020820190506111fe5f8301846111dc565b92915050565b5f8115159050919050565b61121881611204565b82525050565b5f6020820190506112315f83018461120f565b92915050565b5f81519050919050565b5f82825260208201905092915050565b5f819050602082019050919050565b5f82825260208201905092915050565b5f61127a8261115c565b6112848185611260565b9350611294818560208601611176565b61129d81610f83565b840191505092915050565b5f6112b38383611270565b905092915050565b5f602082019050919050565b5f6112d182611237565b6112db8185611241565b9350836020820285016112ed85611251565b805f5b85811015611328578484038952815161130985826112a8565b9450611314836112bb565b925060208a019950506001810190506112f0565b50829750879550505050505092915050565b5f6020820190508181035f83015261135281846112c7565b905092915050565b5f73ffffffffffffffffffffffffffffffffffffffff82169050919050565b5f6113838261135a565b9050919050565b61139381611379565b82525050565b5f6020820190506113ac5f83018461138a565b92915050565b5f5f5f5f5f60a086880312156113cb576113ca610f73565b5b5f86013567ffffffffffffffff8111156113e8576113e7610f77565b5b6113f48882890161108a565b955050602086013567ffffffffffffffff81111561141557611414610f77565b5b6114218882890161108a565b945050604086013567ffffffffffffffff81111561144257611441610f77565b5b61144e8882890161108a565b935050606086013567ffffffffffffffff81111561146f5761146e610f77565b5b61147b8882890161108a565b925050608086013567ffffffffffffffff81111561149c5761149b610f77565b5b6114a88882890161108a565b9150509295509295909350565b5f60c0820190508181035f8301526114cd8189611184565b905081810360208301526114e18188611184565b905081810360408301526114f58187611184565b905081810360608301526115098186611184565b9050818103608083015261151d8185611184565b905061152c60a08301846111dc565b979650505050505050565b5f5f5f6060848603121561154e5761154d610f73565b5b5f84013567ffffffffffffffff81111561156b5761156a610f77565b5b6115778682870161108a565b935050602084013567ffffffffffffffff81111561159857611597610f77565b5b6115a48682870161108a565b925050604084013567ffffffffffffffff8111156115c5576115c4610f77565b5b6115d18682870161108a565b9150509250925092565b7f4f6e6c79206f776e65722063616e2063616c6c207468697300000000000000005f82015250565b5f61160f601883611166565b915061161a826115db565b602082019050919050565b5f6020820190508181035f83015261163c81611603565b9050919050565b5f81905092915050565b5f6116578261115c565b6116618185611643565b9350611671818560208601611176565b80840191505092915050565b5f611688828461164d565b915081905092915050565b7f4e487b71000000000000000000000000000000000000000000000000000000005f52602260045260245ffd5b5f60028204905060018216806116d757607f821691505b6020821081036116ea576116e9611693565b5b50919050565b7f43616e64696461746520616c72656164792065786973747300000000000000005f82015250565b5f611724601883611166565b915061172f826116f0565b602082019050919050565b5f6020820190508181035f83015261175181611718565b9050919050565b5f819050815f5260205f209050919050565b5f6020601f8301049050919050565b5f82821b905092915050565b5f600883026117b47fffffffffffffffffffffffffffffffffffffffffffffffffffffffffffffffff82611779565b6117be8683611779565b95508019841693508086168417925050509392505050565b5f819050919050565b5f6117f96117f46117ef846110fe565b6117d6565b6110fe565b9050919050565b5f819050919050565b611812836117df565b61182661181e82611800565b848454611785565b825550505050565b5f5f905090565b61183d61182e565b611848818484611809565b505050565b5b8181101561186b576118605f82611835565b60018101905061184e565b5050565b601f8211156118b05761188181611758565b61188a8461176a565b81016020851015611899578190505b6118ad6118a58561176a565b83018261184d565b50505b505050565b5f82821c905092915050565b5f6118d05f19846008026118b5565b1980831691505092915050565b5f6118e883836118c1565b9150826002028217905092915050565b6119018261115c565b67ffffffffffffffff81111561191a57611919610f93565b5b61192482546116c0565b61192f82828561186f565b5f60209050601f831160018114611960575f841561194e578287015190505b61195885826118dd565b8655506119bf565b601f19841661196e86611758565b5f5b8281101561199557848901518255600182019150602085019450602081019050611970565b868310156119b257848901516119ae601f8916826118c1565b8355505b6001600288020188555050505b505050505050565b7f566f7465722068617320616c72656164792063617374206120766f74650000005f82015250565b5f6119fb601d83611166565b9150611a06826119c7565b602082019050919050565b5f6020820190508181035f830152611a28816119ef565b9050919050565b7f43616e64696461746520646f6573206e6f7420657869737400000000000000005f82015250565b5f611a63601883611166565b9150611a6e82611a2f565b602082019050919050565b5f6020820190508181035f830152611a9081611a57565b9050919050565b7f4e487b71000000000000000000000000000000000000000000000000000000005f52601160045260245ffd5b5f611ace826110fe565b9150611ad9836110fe565b9250828201905080821115611af157611af0611a97565b5b9291505056fea264697066735822122053fbd33427af0e4c9fe9495593a7bee9c46f196e06d83513e2759c93ee4c90a764736f6c634300081c0033",
  "linkReferences": {},
  "deployedLinkReferences": {},
  "immutableReferences": {},
  "inputSourceName": "project/contracts/Election.sol",
  "buildInfoId": "solc-0_8_28-0e2df170dcf10b659b01c75a7f2d12ad9759604f"
}